:100000000C9436000C9453000C9453000C94530041
:100010000C9432010C9453000C9453000C94530034
:100020000C9453000C9453000C9453000C941D0139
:100030000C9453000C9453000C9453000C945300F4
:100040000C9484000C9453000C9453000C945300B3
:100050000C9453000C94CE000C9453000C94530059
:100060000C9453000C945300F1F2F4F811241FBEC9
:10007000CFEFD8E0DEBFCDBF11E0A0E0B1E0E6ED0C
:10008000FAE002C005900D92A830B107D9F724E03C
:10009000A8E0B1E001C01D92AC3FB207E1F70E94B9
:1000A000D2010C9469050C94000027E030E070E068
:1000B000AB01022E02C0559547950A94E2F740FF26
:1000C0001FC0289A5F9A5F982150310988F7E82F5E
:1000D000F0E0E859FF4FE49187E090E0F0E09F0105
:1000E000082E02C0359527950A94E2F720FF0AC032
:1000F000289A5F9A5F98019790F75C9A5C980895A8
:100100002898E0CF2898F5CF1F920F920FB60F9244
:1001100011242F933F938F939F93AF93BF9380911D
:10012000F7049091F804A091F904B091FA04309189
:10013000F60423E0230F2D3758F50196A11DB11DBC
:100140002093F6048093F7049093F804A093F904A5
:10015000B093FA048091F2049091F304A091F40416
:10016000B091F5040196A11DB11D8093F204909306
:10017000F304A093F404B093F504BF91AF919F9161
:100180008F913F912F910F900FBE0F901F90189558
:1001900026E8230F0296A11DB11DD2CF1F920F9208
:1001A0000FB60F9211242F933F938F939F93EF934A
:1001B000FF93209179008091F0049091F1043091A7
:1001C000FB043436C9F484509D4FFC01208385E63E
:1001D0008093FB0480937C0080917A0080648093FC
:1001E0007A00FF91EF919F918F913F912F910F9006
:1001F0000FBE0F901F901895FC01E85FFE4F208303
:10020000833FF1E09F0770F401969093F10480938F
:10021000F0048091FB0491E089278093FB04809394
:100220007C00DFCF1092F1041092F00488E08093FC
:10023000810083E080930001ECCF1F920F920FB6F4
:100240000F9211248F93EF93FF93EAE7F0E0808100
:1002500080648083FF91EF918F910F900FBE0F907C
:100260001F9018951F920F920FB60F9211248F9224
:100270009F92AF92BF92CF92DF92EF92FF920F9335
:100280001F932F933F934F935F936F937F938F931E
:100290009F93AF93BF93EF93FF93CF93DF93CDB72C
:1002A000DEB76497DEBFCDBF319906C08AE0809388
:1002B000810082E080930001329951C084E08093F4
:1002C000000108E011E08CEFC82E82E0D82E91E00A
:1002D000A92E91E0B92ECE0101967C012DE0822E4F
:1002E0003AE0932EF80191918F01F60181916F010F
:1002F0001F929F931F928F93BF92AF92FF92EF92A4
:100300000E9491020FB6F894DEBF0FBECDBF80E011
:10031000F701E80FF11D9081992371F0F701E80FC3
:10032000F11D90819923A1F32091C00025FFFCCFFE
:100330009093C6008F5FF2CF8091C00085FFFCCF05
:100340008092C6008091C00085FFFCCF9092C600CD
:1003500092E00C3F190731F681E08093000164962A
:100360000FB6F894DEBF0FBECDBFDF91CF91FF91E6
:10037000EF91BF91AF919F918F917F916F915F911D
:100380004F913F912F911F910F91FF90EF90DF9030
:10039000CF90BF90AF909F908F900F900FBE0F9017
:1003A0001F901895789484B5826084BD84B581606F
:1003B00084BD85B5826085BD85B5816085BD809130
:1003C0006E00816080936E001092810080918100A8
:1003D00082608093810080918100816080938100A0
:1003E000809180008160809380008091B100846062
:1003F0008093B1008091B00081608093B0008091C3
:100400007A00846080937A0080917A008260809381
:100410007A0080917A00816080937A0080917A00DE
:10042000806880937A001092C10017B882E08AB980
:1004300096E090936C00809368001092800028E012
:1004400020938100109282002FE037E230938900E0
:100450002093880080936F0084E680937C002FE8CF
:1004600020937A0020E320937E008093FB0427E60C
:1004700030E03093C5002093C4001092C00088E99A
:100480008093C1009093C2008AB180698AB9209A92
:10049000C0E0D0E080910001823059F138F4813021
:1004A000B9F02097B9F30E940000F4CF833059F1DE
:1004B0008430B9F766E880E00E9455006BEA81E07D
:1004C0000E94550063EE82E00E9455006FEE0DC061
:1004D0006CE880E00E94550060E881E00E945500D1
:1004E00063EA82E00E94550067E883E00E945500BD
:1004F000D8CF66EC80E00E94550068E881E00E9459
:1005000055006CE8EECF60EC80E00E94550067EC8F
:1005100081E00E9455006FEE82E00E94550062E982
:10052000E4CFAEE0B0E0E7E9F2E00C9440050D89DD
:100530001E8986E08C831A8309838FEF9FE79E8351
:100540008D83AE01475E5F4F6F89788DCE01019636
:100550000E94B4022F813885020F131FF801108208
:100560002E96E4E00C945C05ABE0B0E0EAEBF2E040
:100570000C9432057C013B018A01FC011782168232
:10058000838181FFC8C1CE0101965C01F70193818F
:10059000F30193FD859193FF81913F01882309F435
:1005A00053C1853239F493FD859193FF81913F01C9
:1005B000853229F4B70190E00E94A404E7CF912C82
:1005C000212C312CFFE1F31538F08B3211F190F42E
:1005D000803209F1833229F137FC3CC020ED280F2D
:1005E0002A3050F536FE20C08AE0989E200D112456
:1005F000922E06C08D3291F0803371F7689430F8F6
:10060000F30193FD859193FF81913F018111DACF31
:1006100021C0689431F8689432F8F2CF689433F8C6
:10062000EFCF689434F8ECCFEAE02E9E200D112431
:10063000222E689435F8E4CF8E3229F436FC04C1BA
:10064000689436F8DDCF8C3619F4689437F8D8CF33
:100650008836B1F2982F9F7D95549330E0F0833621
:10066000A1F18337C1F1833509F063C02801F2E0BD
:100670004F0E511CF801C080D180692D70E036FC0E
:1006800002C06FEF7FEFC6010E948E044C01689498
:1006900037F882010AC00C5F1F4FFFE3F9838824FB
:1006A0008394912C6501E89437F833FE2DC0522CC9
:1006B0008114910471F5552009F468CFB70180E2E7
:1006C00090E00E94A4045A94F6CFF80180818983B7
:1006D0000E5F1F4FE4CF2801F2E04F0E511CF801CE
:1006E000C080D180692D70E036FC02C06FEF7FEFD3
:1006F000C6010E9499044C018201D5CFB70180E266
:1007000090E00E94A4042A942814190409F0B0F778
:10071000CECFF60137FC859137FE81916F01B7018D
:1007200090E00E94A40451105A94F1E08F1A9108AD
:10073000BFCF843619F0893609F077C0F80137FE4B
:100740006BC060817181828193810C5F1F4FF32D9B
:10075000FF763F2E97FF09C0909580957095619523
:100760007F4F8F4F9F4F689437F82AE030E0A50104
:100770000E94D404C82ECA188C2C432C36FE0CC000
:10078000E89440F8C91440F434FE05C032FC03C0BC
:10079000F32DFE7E4F2E892C44FE95C0FE01EC0DFC
:1007A000F11D8081803309F087C0242D297E422EDF
:1007B000842D8870582E43FC95C040FE8FC09C2C21
:1007C000821418F42C0C922C981844FE91C0B70196
:1007D00080E390E00E94A40442FE09C088E790E014
:1007E00041FE02C088E590E0B7010E94A404C9144C
:1007F00008F48AC0CA94D12C9FEFC91AD90ACA0C2E
:10080000DB1CF60182916F01B70190E00E94A40405
:10081000AC14BD04B1F74FCF60817181072E000C7D
:10082000880B990B0E5F1F4F92CFD32CE894D4F80E
:100830002AE030E0853739F1232D297FD22E8F36FB
:1008400001F148F48835A9F0F701868197812B964C
:10085000E2E10C944E05803749F08837A9F7D4FEC1
:1008600002C06894D2F820E130E00DC06894D4F85A
:10087000F6CF34FE03C0822F8660D82E20E132E00E
:1008800002C028E030E0F801D7FE0FC0608171811E
:10089000828193810C5F1F4FA5010E94D404C82E52
:1008A000CA183D2CE89437F867CF6081718190E0D9
:1008B00080E00E5F1F4FF0CF42FC02C0839478CFE0
:1008C0008394839475CF842D867809F471CFF6CF05
:1008D000B70180E290E00E94A40483948214C0F3E4
:1008E000512C73CF522C5818821408F46ECFF8CFC5
:1008F000842D867809F47BCF8BE241FE80E247FCB1
:100900008DE2B70190E071CFB70180E390E00E94E3
:10091000A4049A946CCF8FEF9FEF99CFFC010590C0
:10092000615070400110D8F7809590958E0F9F1FF1
:100930000895FC016150704001900110D8F7809536
:1009400090958E0F9F1F08950F931F93CF93DF9362
:10095000182F092FEB018B8181FD09C01FEF0FEFCD
:10096000812F902FDF91CF911F910F91089582FFDA
:1009700014C02E813F818C819D81281739073CF45A
:10098000E881F981CF0101969983888310838E8154
:100990009F8101969F838E83E3CFE885F985812F20
:1009A0000995892BA1F3DACFFA01AA27283051F152
:1009B000203181F1E8946F936E7F6E5F7F4F8F4F90
:1009C0009F4FAF4FB1E03ED0B4E03CD0670F781FEF
:1009D000891F9A1FA11D680F791F8A1F911DA11DD4
:1009E0006A0F711D811D911DA11D20D009F468940D
:1009F0003F912AE0269F11243019305D3193DEF6B5
:100A0000CF010895462F4770405D4193B3E00FD06A
:100A1000C9F7F6CF462F4F70405D4A3318F0495D55
:100A200031FD4052419302D0A9F7EACFB4E0A69538
:100A30009795879577956795BA95C9F7009761055A
:100A4000710508959B01AC010A2E069457954795B0
:100A500037952795BA95C9F7620F731F841F951FA5
:100A6000A01D08952F923F924F925F926F927F92B6
:100A70008F929F92AF92BF92CF92DF92EF92FF92AE
:100A80000F931F93CF93DF93CDB7DEB7CA1BDB0B5A
:100A90000FB6F894DEBF0FBECDBF09942A883988FF
:100AA00048885F846E847D848C849B84AA84B98406
:100AB000C884DF80EE80FD800C811B81AA81B98112
:100AC000CE0FD11D0FB6F894DEBF0FBECDBFED0126
:060AD0000895F894FFCF29
:080AD6000125642C25640000D9
:00000001FF
