:020000040000FA
:100000000C9434000C9451000C9451000C94510049
:100010000C9451000C9451000C9451000C9451001C
:100020000C9451000C9451000C9451000C9451000C
:100030000C9451000C9451000C9451000C945100FC
:100040000C946A000C9451000C94B4000C94510070
:100050000C9451000C9451000C9451000C945100DC
:100060000C9451000C94510011241FBECFEFD8E026
:10007000DEBFCDBF11E0A0E0B1E0EEEFF2E002C0E4
:1000800005900D92A432B107D9F721E0A4E2B1E0C6
:1000900001C01D92A239B207E1F70E9417010C942A
:1000A0007D010C940000AC0190E0FA01E90FF11D14
:1000B0008081882371F0FA01E90FF11D208122234C
:1000C000A1F38091C00085FFFCCF2093C6009F5F05
:1000D000F2CF08951F920F920FB60F9211242F9313
:1000E0003F938F939F93AF93BF9380918E01909195
:1000F0008F01A0919001B091910130918D0123E089
:10010000230F2D3758F50196A11DB11D20938D01A8
:1001100080938E0190938F01A0939001B0939101F1
:100120008091890190918A01A0918B01B0918C01FD
:100130000196A11DB11D8093890190938A01A0931E
:100140008B01B0938C01BF91AF919F918F913F91A3
:100150002F910F900FBE0F901F90189526E8230F38
:100160000296A11DB11DD2CF1F920F920FB60F9212
:1001700011240F931F932F933F934F935F936F938C
:100180007F938F939F93AF93BF93CF93EF93FF93FF
:100190008091C600C09188010C2F10E00C5D1E4FAD
:1001A0008432C9F0F8018083CF5FC0938801FF914A
:1001B000EF91CF91BF91AF919F918F917F916F916F
:1001C0005F914F913F912F911F910F910F900FBE13
:1001D0000F901F90189580E091E00E945300F80165
:1001E000108284E291E00E9453008CE091E00E9432
:1001F00053008091C00085FFFCCF8C2F6AE00E94E5
:100200007101805D8093C6008091C00085FFFCCFA6
:10021000809188016AE00E947101905D9093C60010
:1002200085E191E00E94530010928801C0CF78943C
:1002300084B5826084BD84B5816084BD85B58260EB
:1002400085BD85B5816085BD80916E00816080939C
:100250006E00109281008091810082608093810005
:100260008091810081608093810080918000816015
:10027000809380008091B10084608093B100809170
:10028000B00081608093B00080917A008460809398
:100290007A0080917A00826080937A0080917A005F
:1002A000816080937A0080917A00806880937A00E0
:1002B0001092C10082E08AB987E690E09093C50071
:1002C0008093C4001092C00088E98093C10086E04A
:1002D0008093C200C0E0D0E02097F1F30E940000BC
:1002E000FBCF991B79E004C0991F961708F0961B65
:1002F000881F7A95C9F780950895F894FFCF4C61CF
:1003000020636164656E6120220022207469656E3D
:1003100065200020636172616374657265732E0AE3
:020320000000DB
:107E0000112484B714BE81FFF0D085E080938100F7
:107E100082E08093C00088E18093C10086E0809377
:107E2000C20080E18093C4008EE0C9D0259A86E02C
:107E300020E33CEF91E0309385002093840096BBD3
:107E4000B09BFECF1D9AA8958150A9F7CC24DD24C4
:107E500088248394B5E0AB2EA1E19A2EF3E0BF2EE7
:107E6000A2D0813461F49FD0082FAFD0023811F036
:107E7000013811F484E001C083E08DD089C08234E0
:107E800011F484E103C0853419F485E0A6D080C0E4
:107E9000853579F488D0E82EFF2485D0082F10E0AE
:107EA000102F00270E291F29000F111F8ED06801E7
:107EB0006FC0863521F484E090D080E0DECF843638
:107EC00009F040C070D06FD0082F6DD080E0C81688
:107ED00080E7D80618F4F601B7BEE895C0E0D1E017
:107EE00062D089930C17E1F7F0E0CF16F0E7DF06D8
:107EF00018F0F601B7BEE89568D007B600FCFDCFD4
:107F0000A601A0E0B1E02C9130E011968C91119780
:107F100090E0982F8827822B932B1296FA010C0160
:107F200087BEE89511244E5F5F4FF1E0A038BF0790
:107F300051F7F601A7BEE89507B600FCFDCF97BE46
:107F4000E89526C08437B1F42ED02DD0F82E2BD052
:107F50003CD0F601EF2C8F010F5F1F4F84911BD097
:107F6000EA94F801C1F70894C11CD11CFA94CF0C13
:107F7000D11C0EC0853739F428D08EE10CD085E9AC
:107F80000AD08FE07ACF813511F488E018D01DD067
:107F900080E101D065CF982F8091C00085FFFCCF94
:107FA0009093C60008958091C00087FFFCCF809118
:107FB000C00084FD01C0A8958091C6000895E0E648
:107FC000F0E098E1908380830895EDDF803219F02E
:107FD00088E0F5DFFFCF84E1DECF1F93182FE3DFCA
:107FE0001150E9F7F2DF1F91089580E0E8DFEE27F6
:047FF000FF270994CA
:027FFE00040479
:00000001FF
