:100000000C9434000C9451000C9451000C94510049
:100010000C9451000C9451000C9451000C9451001C
:100020000C9451000C9451000C9451000C9451000C
:100030000C9451000C9451000C9451000C945100FC
:100040000C9478000C9451000C9451000C945100C5
:100050000C9451000C9451000C9451000C945100DC
:100060000C9451000C94510011241FBECFEFD8E026
:10007000DEBFCDBF11E0A0E0B1E0ECE7F2E002C0EE
:1000800005900D92A031B107D9F721E0A0E1B1E0D0
:1000900001C01D92A931B207E1F70E94C2000C9481
:1000A0003C010C9400003FB7F894809115019091A9
:1000B0001601A0911701B091180126B5A89B05C0A3
:1000C0002F3F19F00196A11DB11D3FBFBA2FA92FD7
:1000D000982F8827BC01CD01620F711D811D911DD4
:1000E00042E0660F771F881F991F4A95D1F7089540
:1000F0001F920F920FB60F9211242F933F938F935D
:100100009F93AF93BF938091110190911201A091A1
:100110001301B09114013091100123E0230F2D370A
:1001200058F50196A11DB11D209310018093110176
:1001300090931201A0931301B093140180911501C3
:1001400090911601A0911701B09118010196A11D7F
:10015000B11D8093150190931601A0931701B093E0
:100160001801BF91AF919F918F913F912F910F9067
:100170000FBE0F901F90189526E8230F0296A11D21
:10018000B11DD2CF789484B5826084BD84B581607E
:1001900084BD85B5826085BD85B5816085BD809152
:1001A0006E00816080936E001092810080918100CA
:1001B00082608093810080918100816080938100C2
:1001C000809180008160809380008091B100846084
:1001D0008093B1008091B00081608093B0008091E5
:1001E0007A00846080937A0080917A0082608093A4
:1001F0007A0080917A00816080937A0080917A0001
:10020000806880937A001092C10017B88FEF88B988
:100210008AB9C0E0D0E0E6B1EF70F0E0E050FF4F07
:1002200080818BB90E9453004B015C018CE2C82E87
:10023000DD24D394E12CF12C0E9453006819790934
:100240008A099B09683E734081059105A8F321E066
:10025000C21AD108E108F10888EE880E83E0981EE2
:10026000A11CB11CC114D104E104F10429F72097A9
:0C02700091F20E940000CFCFF894FFCF65
:10027C003F065B4F666D7D077F67777C395E7971D2
:00000001FF
