:020000040000FA
:100000000C943B000C9458000C9458000C9458002D
:100010000C947E030C9458000C9458000C945800D7
:100020000C9458000C9458000C9458000C945800F0
:100030000C9458000C9458000C9458000C945800E0
:100040000C94F9010C9458000C9443020C94580041
:100050000C9458000C9458000C9458000C945800C0
:100060000C9458000C945800F1F2F4F8C0F9A4B0C4
:10007000999282F8809011241FBECFEFD8E0DEBFA6
:10008000CDBF11E0A0E0B1E0E4E9FEE002C00590E0
:100090000D92A433B107D9F721E0A4E3B1E001C088
:1000A0001D92A734B207E1F70E9495030C9448070C
:1000B0000C9400003FB7F894809143019091440163
:1000C000A0914501B091460126B5A89B05C02F3FE0
:1000D00019F00196A11DB11D3FBFBA2FA92F982F6E
:1000E0008827BC01CD01620F711D811D911D42E069
:1000F000660F771F881F991F4A95D1F708958F9231
:100100009F92AF92BF92CF92DF92EF92FF920E94A6
:100110005A004B015C0185E0C82ED12CE12CF12C5A
:100120000E945A00681979098A099B09683E734040
:1001300081059105A8F321E0C21AD108E108F10870
:1001400088EE880E83E0981EA11CB11CC114D10456
:10015000E104F10429F7FF90EF90DF90CF90BF907A
:10016000AF909F908F90089527E030E070E0AB0152
:10017000022E02C0559547950A94E2F740FF1FC032
:10018000289A5F9A5F982150310988F7E82FF0E0AC
:10019000E859FF4FE49187E090E0F0E09F01082EDE
:1001A00002C0359527950A94E2F720FF0AC0289AE5
:1001B0005F9A5F98019790F75C9A5C9808952898E9
:1001C000E0CF2898F5CFDF92EF92FF920F931F9325
:1001D000CF93DF93EC0189519C4F873F9A4290F077
:1001E000C0E066E88C2F0E94B4000E947F00CF5FC1
:1001F000C430B9F7DF91CF911F910F91FF90EF902D
:10020000DF900895D7FD18C013E09AE0E92EF12C95
:10021000CE01B7010E944804D62E072FFC01E459F5
:10022000FF4F6491812F0E94B400CD2DD02F0E94EA
:100230007F00115068F7DECFD195C195D10913E049
:100240008AE0E82EF12CCE01B7010E944804D62E98
:10025000072FFC01E459FF4F6491812F0E94B400E5
:10026000CD2DD02F0E947F00115069F76FEB80E0F9
:100270000E94B400DF91CF911F910F91FF90EF90FA
:10028000DF900C947F0084E98093BC008091BC00D7
:1002900084FDFCCF08958093BB0084E88093BC006C
:1002A0008091BC0087FFFCCF8091B900887F8831A6
:1002B00021F0883211F0803409F481E0089584EA55
:1002C0008093BC008091BC0087FFFCCF8091B90077
:1002D000887F883011F0803109F481E00895FC01B5
:1002E000908120E0992361F08091C00085FFFCCFD0
:1002F0009093C6002F5FDF01A20FB11D9C91F2CF3A
:100300008091C00085FFFCCF8DE08093C600809176
:10031000C00085FFFCCF8AE08093C6000895982F27
:1003200092959F708F702AE0929F800D11240895FE
:10033000CF93DF93C82FD62F0E945F01813039F40D
:1003400080ED0E944B01813021F00E944301C0E00A
:100350000DC08D2F0E944B018130B9F78C2F0E9468
:100360004B01C82F813089F70E9443018C2FDF9108
:10037000CF9108950F931F93CF938C01C62F0E94A6
:100380005F01813039F480ED0E944B01813021F012
:100390000E944301C0E028C08C2F0E944B01813095
:1003A000B9F70E945F01813099F781ED0E944B01FE
:1003B000C82F813069F78091BC008F7B8093BC008F
:1003C0008091BC0080688093BC008091BC0087FF56
:1003D000FCCF8091B900807F8035D1F68091BB0041
:1003E000F80180830E9443018C2FCF911F910F91C0
:1003F00008951F920F920FB60F9211242F933F93DF
:100400008F939F93AF93BF9380913F019091400151
:10041000A0914101B091420130913E0123E0230FB0
:100420002D3758F50196A11DB11D20933E018093F3
:100430003F0190934001A0934101B093420180910C
:10044000430190914401A0914501B091460101966C
:10045000A11DB11D8093430190934401A0934501D8
:10046000B0934601BF91AF919F918F913F912F9192
:100470000F900FBE0F901F90189526E8230F02963D
:10048000A11DB11DD2CF1F920F920FB60F92112452
:100490000F931F932F933F934F935F936F937F938C
:1004A0008F939F93AF93BF93EF93FF93CF93DF937C
:1004B00000D01F92CDB7DEB78091C60090910001A9
:1004C000943009F488C0953009F4D2C09130B9F560
:1004D0008F7D883409F04BC060E0CE0101960E9408
:1004E000BA0161E0CE0102960E94BA0162E0CE013B
:1004F00003960E94BA0189810E948F01082F8A8188
:100500000E948F01182F8B810E948F011F920F93E1
:100510001F921F931F928F9382E091E09F938F937E
:1005200085E391E09F938F930E94700485E391E0AF
:100530000E946F010FB6F894DEBF0FBECDBF0F90C3
:100540000F900F90DF91CF91FF91EF91BF91AF91FD
:100550009F918F917F916F915F914F913F912F91DB
:100560001F910F910F900FBE0F901F90189586341A
:1005700019F564E0CE0103960E94BA0165E0CE0150
:1005800002960E94BA0166E0CE0101960E94BA016D
:1005900089810E948F01082F8A810E948F01182F64
:1005A0008B810E948F011F920F931F921F931F92A6
:1005B0008F9381E191E0B2CF843521F484E0809380
:1005C0000001BDCF843411F485E0F9CF80E291E0E1
:1005D0000E946F01B4CF90913401E92FF0E0EB5C01
:1005E000FE4F8083953020F49F5F90933401A7CF16
:1005F000109234019091350190531AE080913601A8
:100600008053919F800D11248B83909137019053DB
:10061000809138018053919F800D11248A8390919D
:100620003901905380913A018053919F800D11249C
:100630008983612F0E943C048295807F60E0890F4E
:100640000E9498018A81612F0E943C048295807FDC
:1006500061E0890F0E9498018B81612F0E943C0408
:100660008295807F62E0890F0E94980181E0A7CF88
:1006700090913401E92FF0E0EB5CFE4F80839530E0
:1006800008F4B2CF109234019091350190531AE0E2
:10069000809136018053919F800D11248B8320918E
:1006A00037012053909138019053219F900D1124D0
:1006B0009A8320913901205390913A019053219FC0
:1006C000900D11249983612F0E943C048295807FB4
:1006D00064E0890F0E9498018A81612F0E943C0486
:1006E0008295807F65E0890F0E9498018981612F42
:1006F0000E943C048295807F66E0B5CF1F920F92E6
:100700000FB60F9211248F93319907C08091010188
:10071000833048F48F5F809301018F910F900FBE5B
:100720000F901F90189581E0F6CFCF93DF9300D004
:10073000CDB7DEB7789484B5826084BD84B581601E
:1007400084BD85B5826085BD85B5816085BD80919C
:100750006E00816080936E00109281008091810014
:10076000826080938100809181008160809381000C
:10077000809180008160809380008091B1008460CE
:100780008093B1008091B00081608093B00080912F
:100790007A00846080937A0080917A0082608093EE
:1007A0007A0080917A00816080937A0080917A004B
:1007B000806880937A001092C10017B81AB882E05E
:1007C00080936C008093680087E690E09093C5006A
:1007D0008093C4001092C00088E98093C10086E035
:1007E0008093C20082E18093B80081E08093B900D9
:1007F00084E08093BC008AB180698AB9209A84E63B
:10080000F82E00E010E0809101018230D9F08330B1
:1008100051F1813011F561E0CE0102960E94BA01DA
:1008200062E0CE0101960E94BA0189810E948F0187
:10083000E82E8A810E948F0190E0EF9C800D911D2F
:10084000112409C060E0CE0101960E94BA0189819D
:100850000E948F0190E00E94E3000115110599F2BA
:100860000E940000D0CF64E0CE0101960E94BA0140
:1008700065E0CE010296D7CF991B79E004C0991F9D
:10088000961708F0961B881F7A95C9F780950895EA
:1008900097FB072E16F4009407D077FD09D00E942D
:1008A0005C0407FC05D03EF4909581959F4F089518
:1008B000709561957F4F0895AA1BBB1B51E107C03E
:1008C000AA1FBB1FA617B70710F0A61BB70B881FE0
:1008D000991F5A95A9F780959095BC01CD0108956F
:1008E000AEE0B0E0E6E7F4E00C941F070D891E8946
:1008F00086E08C831A8309838FEF9FE79E838D8325
:10090000AE01475E5F4F6F89788DCE0101960E94E0
:1009100093042F813885020F131FF80110822E9641
:10092000E4E00C943B07ABE0B0E0E9E9F4E00C94C0
:1009300011077C013B018A01FC0117821682838129
:1009400081FFC8C1CE0101965C01F7019381F301DB
:1009500093FD859193FF81913F01882309F453C151
:10096000853239F493FD859193FF81913F01853262
:1009700029F4B70190E00E948306E7CF912C212C47
:10098000312CFFE1F31538F08B3211F190F4803205
:1009900009F1833229F137FC3CC020ED280F2A30C1
:1009A00050F536FE20C08AE0989E200D1124922E2C
:1009B00006C08D3291F0803371F7689430F8F301FE
:1009C00093FD859193FF81913F018111DACF21C081
:1009D000689431F8689432F8F2CF689433F8EFCF26
:1009E000689434F8ECCFEAE02E9E200D1124222EDC
:1009F000689435F8E4CF8E3229F436FC04C168944B
:100A000036F8DDCF8C3619F4689437F8D8CF8836AD
:100A1000B1F2982F9F7D95549330E0F08336A1F189
:100A20008337C1F1833509F063C02801F2E04F0E2E
:100A3000511CF801C080D180692D70E036FC02C0E5
:100A40006FEF7FEFC6010E946D064C01689437F886
:100A500082010AC00C5F1F4FFFE3F983882483944F
:100A6000912C6501E89437F833FE2DC0522C811487
:100A7000910471F5552009F468CFB70180E290E048
:100A80000E9483065A94F6CFF801808189830E5F15
:100A90001F4FE4CF2801F2E04F0E511CF801C08037
:100AA000D180692D70E036FC02C06FEF7FEFC60188
:100AB0000E9478064C018201D5CFB70180E290E018
:100AC0000E9483062A942814190409F0B0F7CECFA7
:100AD000F60137FC859137FE81916F01B70190E0F7
:100AE0000E94830651105A94F1E08F1A9108BFCFEB
:100AF000843619F0893609F077C0F80137FE6BC0EB
:100B000060817181828193810C5F1F4FF32DFF768D
:100B10003F2E97FF09C090958095709561957F4F06
:100B20008F4F9F4F689437F82AE030E0A5010E946C
:100B3000B306C82ECA188C2C432C36FE0CC0E89481
:100B400040F8C91440F434FE05C032FC03C0F32D54
:100B5000FE7E4F2E892C44FE95C0FE01EC0DF11D4A
:100B60008081803309F087C0242D297E422E842D78
:100B70008870582E43FC95C040FE8FC09C2C821478
:100B800018F42C0C922C981844FE91C0B70180E305
:100B900090E00E94830642FE09C088E790E041FE93
:100BA00002C088E590E0B7010E948306C91408F4EA
:100BB0008AC0CA94D12C9FEFC91AD90ACA0CDB1C6F
:100BC000F60182916F01B70190E00E948306AC1498
:100BD000BD04B1F74FCF60817181072E000C880BE7
:100BE000990B0E5F1F4F92CFD32CE894D4F82AE0D4
:100BF00030E0853739F1232D297FD22E8F3601F150
:100C000048F48835A9F0F701868197812B96E2E1B7
:100C10000C942D07803749F08837A9F7D4FE02C01D
:100C20006894D2F820E130E00DC06894D4F8F6CF93
:100C300034FE03C0822F8660D82E20E132E002C04D
:100C400028E030E0F801D7FE0FC060817181828119
:100C500093810C5F1F4FA5010E94B306C82ECA18CE
:100C60003D2CE89437F867CF6081718190E080E097
:100C70000E5F1F4FF0CF42FC02C0839478CF839465
:100C8000839475CF842D867809F471CFF6CFB701A0
:100C900080E290E00E94830683948214C0F3512C7A
:100CA00073CF522C5818821408F46ECFF8CF842DCD
:100CB000867809F47BCF8BE241FE80E247FC8DE22F
:100CC000B70190E071CFB70180E390E00E94830606
:100CD0009A946CCF8FEF9FEF99CFFC0105906150F4
:100CE00070400110D8F7809590958E0F9F1F089542
:100CF000FC016150704001900110D8F780959095EB
:100D00008E0F9F1F08950F931F93CF93DF93182F7C
:100D1000092FEB018B8181FD09C01FEF0FEF812FA0
:100D2000902FDF91CF911F910F91089582FF14C0F2
:100D30002E813F818C819D81281739073CF4E88101
:100D4000F981CF0101969983888310838E819F81D9
:100D500001969F838E83E3CFE885F985812F0995DE
:100D6000892BA1F3DACFFA01AA27283051F12031DB
:100D700081F1E8946F936E7F6E5F7F4F8F4F9F4F2F
:100D8000AF4FB1E03ED0B4E03CD0670F781F891F71
:100D90009A1FA11D680F791F8A1F911DA11D6A0F3F
:100DA000711D811D911DA11D20D009F468943F91F2
:100DB0002AE0269F11243019305D3193DEF6CF01F1
:100DC0000895462F4770405D4193B3E00FD0C9F7B7
:100DD000F6CF462F4F70405D4A3318F0495D31FD24
:100DE0004052419302D0A9F7EACFB4E0A695979577
:100DF000879577956795BA95C9F70097610571054D
:100E000008959B01AC010A2E069457954795379596
:100E10002795BA95C9F7620F731F841F951FA01DF0
:100E200008952F923F924F925F926F927F928F928E
:100E30009F92AF92BF92CF92DF92EF92FF920F9369
:100E40001F93CF93DF93CDB7DEB7CA1BDB0B0FB673
:100E5000F894DEBF0FBECDBF09942A883988488830
:100E60005F846E847D848C849B84AA84B984C884C6
:100E7000DF80EE80FD800C811B81AA81B981CE0FBD
:100E8000D11D0FB6F894DEBF0FBECDBFED010895A2
:100E9000F894FFCF0101253032643A253032643AAC
:100EA0002530326400253032642F253032642F25FE
:100EB00030326400436F6D616E646F206E6F20642A
:080EC0006566696E69646F004C
:107E0000112484B714BE81FFF0D085E080938100F7
:107E100082E08093C00088E18093C10086E0809377
:107E2000C20080E18093C4008EE0C9D0259A86E02C
:107E300020E33CEF91E0309385002093840096BBD3
:107E4000B09BFECF1D9AA8958150A9F7CC24DD24C4
:107E500088248394B5E0AB2EA1E19A2EF3E0BF2EE7
:107E6000A2D0813461F49FD0082FAFD0023811F036
:107E7000013811F484E001C083E08DD089C08234E0
:107E800011F484E103C0853419F485E0A6D080C0E4
:107E9000853579F488D0E82EFF2485D0082F10E0AE
:107EA000102F00270E291F29000F111F8ED06801E7
:107EB0006FC0863521F484E090D080E0DECF843638
:107EC00009F040C070D06FD0082F6DD080E0C81688
:107ED00080E7D80618F4F601B7BEE895C0E0D1E017
:107EE00062D089930C17E1F7F0E0CF16F0E7DF06D8
:107EF00018F0F601B7BEE89568D007B600FCFDCFD4
:107F0000A601A0E0B1E02C9130E011968C91119780
:107F100090E0982F8827822B932B1296FA010C0160
:107F200087BEE89511244E5F5F4FF1E0A038BF0790
:107F300051F7F601A7BEE89507B600FCFDCF97BE46
:107F4000E89526C08437B1F42ED02DD0F82E2BD052
:107F50003CD0F601EF2C8F010F5F1F4F84911BD097
:107F6000EA94F801C1F70894C11CD11CFA94CF0C13
:107F7000D11C0EC0853739F428D08EE10CD085E9AC
:107F80000AD08FE07ACF813511F488E018D01DD067
:107F900080E101D065CF982F8091C00085FFFCCF94
:107FA0009093C60008958091C00087FFFCCF809118
:107FB000C00084FD01C0A8958091C6000895E0E648
:107FC000F0E098E1908380830895EDDF803219F02E
:107FD00088E0F5DFFFCF84E1DECF1F93182FE3DFCA
:107FE0001150E9F7F2DF1F91089580E0E8DFEE27F6
:047FF000FF270994CA
:027FFE00040479
:00000001FF
