:100000000C9434000C9446000C9446000C9446006A
:100010000C9492000C9446000C9446000C944600FC
:100020000C9446000C9446000C9446000C94460038
:100030000C9446000C9446000C9446000C94460028
:100040000C9448000C9446000C9446000C94460016
:100050000C9446000C9446000C9446000C94460008
:100060000C9446000C94460011241FBECFEFD8E03C
:10007000DEBFCDBF21E0A0E0B1E001C01D92AB30FA
:10008000B207E1F70E94B9000C941D010C94000026
:100090001F920F920FB60F9211242F933F938F93BD
:1000A0009F93AF93BF938091070190910801A09116
:1000B0000901B0910A013091060123E0230F2D3789
:1000C00058F50196A11DB11D2093060180930701EB
:1000D00090930801A0930901B0930A018091020155
:1000E00090910301A0910401B09105010196A11D19
:1000F000B11D8093020190930301A0930401B0937A
:100100000501BF91AF919F918F913F912F910F90DA
:100110000FBE0F901F90189526E8230F0296A11D81
:10012000B11DD2CF1F920F920FB60F9211242F93B1
:100130008F939F93319912C080910001909101019A
:1001400080322EE4920790F48056904F90930101F4
:100150008093000190938B0080938A009F918F91F0
:100160002F910F900FBE0F901F90189590E080E098
:10017000EDCF789484B5826084BD84B5816084BD00
:1001800085B5826085BD85B5816085BD80916E0035
:10019000816080936E001092810080918100826066
:1001A00080938100809181008160809381008091A3
:1001B00080008160809380008091B1008460809392
:1001C000B1008091B00081608093B00080917A008E
:1001D000846080937A0080917A00826080937A00B4
:1001E00080917A00816080937A0080917A008068A3
:1001F00080937A001092C10017B884E084B982E03D
:1002000080936C008093680083E3809380008AE190
:10021000809381001092820080E29EE49093890096
:100220008093880010928B0010928A00C0E0D0E08A
:0E0230002097F1F30E940000FBCFF894FFCF5F
:00000001FF
