:100000000C9434000C9446000C9446000C9446006A
:100010000C9446000C9446000C9446000C94460048
:100020000C9446000C9446000C9446000C94460038
:100030000C9446000C9446000C9446000C94460028
:100040000C94B2000C9446000C9446000C944600AC
:100050000C9446000C9446000C9446000C94460008
:100060000C9446000C94460011241FBECFEFD8E03C
:10007000DEBFCDBF21E0A0E0B1E001C01D92A930FC
:10008000B207E1F70E94FC000C945C010C940000A4
:100090003FB7F8948091050190910601A091070166
:1000A000B091080126B5A89B05C02F3F19F0019615
:1000B000A11DB11D3FBFBA2FA92F982F8827BC01C2
:1000C000CD01620F711D811D911D42E0660F771FEA
:1000D000881F991F4A95D1F708958F929F92AF92EA
:1000E000BF92CF92DF92EF92FF920E9448004B01A5
:1000F0005C0184E6C82ED12CE12CF12C0E94480032
:10010000681979098A099B09683E73408105910540
:10011000A8F321E0C21AD108E108F10888EE880EA0
:1001200083E0981EA11CB11CC114D104E104F104A8
:1001300029F7FF90EF90DF90CF90BF90AF909F9006
:100140008F9008952A989EBD0DB407FEFDCF9EB5F1
:100150008EBD0DB407FEFDCF8EB584E085B90E943B
:100160006D0008951F920F920FB60F9211242F93D6
:100170003F938F939F93AF93BF9380910101909191
:100180000201A0910301B09104013091000123E02C
:10019000230F2D3758F50196A11DB11D20930001A5
:1001A0008093010190930201A0930301B093040195
:1001B0008091050190910601A0910701B09108017D
:1001C0000196A11DB11D8093050190930601A09396
:1001D0000701B0930801BF91AF919F918F913F911B
:1001E0002F910F900FBE0F901F90189526E8230FA8
:1001F0000296A11DB11DD2CF789484B5826084BDD2
:1002000084B5816084BD85B5826085BD85B581601A
:1002100085BD80916E00816080936E001092810098
:100220008091810082608093810080918100816053
:100230008093810080918000816080938000809114
:10024000B10084608093B1008091B00081608093A0
:10025000B00080917A00846080937A0080917A0067
:10026000826080937A0080917A00816080937A0026
:1002700080917A00806880937A001092C1008CE2AD
:1002800084B984E085B980E58CBD81E08DBD0E9494
:100290006D0080E09FE00E94A20081E09CE00E944F
:1002A000A2008FE495E00E94A200C0E0D0E0209779
:0C02B000F1F30E940000FBCFF894FFCF98
:00000001FF
