:020000040000FA
:100000000C9434000C9446000C9446000C9446006A
:100010000C9446000C9446000C9446000C94460048
:100020000C9446000C9446000C9446000C94460038
:100030000C9446000C9446000C9446000C94460028
:100040000C9455000C9446000C949F000C944600B0
:100050000C9446000C9446000C9446000C94460008
:100060000C9446000C94460011241FBECFEFD8E03C
:10007000DEBFCDBF21E0A0E0B1E001C01D92A23102
:10008000B207E1F70E94E5000C9481010C94000096
:100090002A988EBD0DB407FEFDCF8EB56EBD0DB492
:1000A00007FEFDCF8EB52A9A08951F920F920FB6C4
:1000B0000F9211242F933F938F939F93AF93BF93EE
:1000C00080910E0190910F01A0911001B09111014A
:1000D00030910D0123E0230F2D3758F50196A11D16
:1000E000B11D20930D0180930E0190930F01A093F9
:1000F0001001B09311018091090190910A01A09122
:100100000B01B0910C010196A11DB11D8093090155
:1001100090930A01A0930B01B0930C01BF91AF9192
:100120009F918F913F912F910F900FBE0F901F9035
:10013000189526E8230F0296A11DB11DD2CF1F925C
:100140000F920FB60F9211240F931F932F933F938B
:100150004F935F936F937F938F939F93AF93BF93CF
:10016000CF93EF93FF939091C60080910801883060
:10017000C0F4E82FF0E0E050FF4F90838F5F809352
:100180000801883071F400E011E0C1E0F8016191EC
:100190008F018C2F0E944800CF5FC930B9F71092B1
:1001A0000801FF91EF91CF91BF91AF919F918F91F6
:1001B0007F916F915F914F913F912F911F910F917F
:1001C0000F900FBE0F901F901895789484B58260A1
:1001D00084BD84B5816084BD85B5826085BD85B5EB
:1001E000816085BD80916E00816080936E00109269
:1001F00081008091810082608093810080918100E4
:100200008160809381008091800081608093800074
:100210008091B10084608093B1008091B0008160D2
:100220008093B00080917A00846080937A008091FE
:100230007A00826080937A0080917A008160809356
:100240007A0080917A00806880937A001092C100D1
:100250008CE284B984E085B987E690E09093C5008C
:100260008093C4001092C00088E98093C10086E0AA
:100270008093C20080E58CBD81E08DBD60E089E0A7
:100280000E94480067E08AE00E94480067E08BE037
:100290000E94480061E08CE00E94480060E08FE02E
:1002A0000E944800C1E060E08C2F0E944800CF5FB0
:1002B000C930C9F765EA81E00E94480067EA82E038
:1002C0000E94480065EA83E00E94480065EE84E0F1
:1002D0000E94480068E385E00E94480060E186E0F3
:1002E0000E94480060E187E00E94480060E188E0E9
:1002F0000E944800C0E0D0E02097F1F30E94000087
:06030000FBCFF894FFCFD3
:107E0000112484B714BE81FFF0D085E080938100F7
:107E100082E08093C00088E18093C10086E0809377
:107E2000C20080E18093C4008EE0C9D0259A86E02C
:107E300020E33CEF91E0309385002093840096BBD3
:107E4000B09BFECF1D9AA8958150A9F7CC24DD24C4
:107E500088248394B5E0AB2EA1E19A2EF3E0BF2EE7
:107E6000A2D0813461F49FD0082FAFD0023811F036
:107E7000013811F484E001C083E08DD089C08234E0
:107E800011F484E103C0853419F485E0A6D080C0E4
:107E9000853579F488D0E82EFF2485D0082F10E0AE
:107EA000102F00270E291F29000F111F8ED06801E7
:107EB0006FC0863521F484E090D080E0DECF843638
:107EC00009F040C070D06FD0082F6DD080E0C81688
:107ED00080E7D80618F4F601B7BEE895C0E0D1E017
:107EE00062D089930C17E1F7F0E0CF16F0E7DF06D8
:107EF00018F0F601B7BEE89568D007B600FCFDCFD4
:107F0000A601A0E0B1E02C9130E011968C91119780
:107F100090E0982F8827822B932B1296FA010C0160
:107F200087BEE89511244E5F5F4FF1E0A038BF0790
:107F300051F7F601A7BEE89507B600FCFDCF97BE46
:107F4000E89526C08437B1F42ED02DD0F82E2BD052
:107F50003CD0F601EF2C8F010F5F1F4F84911BD097
:107F6000EA94F801C1F70894C11CD11CFA94CF0C13
:107F7000D11C0EC0853739F428D08EE10CD085E9AC
:107F80000AD08FE07ACF813511F488E018D01DD067
:107F900080E101D065CF982F8091C00085FFFCCF94
:107FA0009093C60008958091C00087FFFCCF809118
:107FB000C00084FD01C0A8958091C6000895E0E648
:107FC000F0E098E1908380830895EDDF803219F02E
:107FD00088E0F5DFFFCF84E1DECF1F93182FE3DFCA
:107FE0001150E9F7F2DF1F91089580E0E8DFEE27F6
:047FF000FF270994CA
:027FFE00040479
:00000001FF
