:100000000C9435000C945D000C945D000C945D0024
:100010000C94AD020C945D000C945D000C945D009A
:100020000C945D000C945D000C945D000C948C02AB
:100030000C945D000C945D000C945D000C945D00CC
:100040000C9442020C945D000C9410020C94EA0192
:100050000C945D000C945D000C945D000C945D00AC
:100060000C945D000C945D00D30311241FBECFEFF0
:10007000D8E0DEBFCDBF11E0A0E0B1E0E8E2F8E0FB
:1000800002C005900D92AC31B107D9F721E0ACE187
:10009000B1E001C01D92A43CB207E1F710E0C5E356
:1000A000D0E004C02197FE010E940C04C433D107A4
:1000B000C9F70E9400030C9412040C940000AF9244
:1000C000BF92CF92DF92EF92FF920F931F93CF9345
:1000D000DF936C017B018B01040F151FEB015E01A7
:1000E000AE18BF08C017D10759F06991D601ED913C
:1000F000FC910190F081E02DC6010995892B79F7DB
:10010000C501DF91CF911F910F91FF90EF90DF908C
:10011000CF90BF90AF900895FC01538D448D252F53
:1001200030E0842F90E0821B930B541710F0CF9691
:10013000089501970895FC01918D828D981761F0C3
:10014000A28DAE0FBF2FB11D5D968C91928D9F5FDA
:100150009F73928F90E008958FEF9FEF0895FC01B9
:10016000918D828D981731F0828DE80FF11D858D6C
:1001700090E008958FEF9FEF0895FC01918D228DFF
:10018000892F90E0805C9F4F821B91098F73992784
:10019000089585E291E00E94BD0021E0892B09F4D9
:1001A00020E0822F089580E090E0892B29F00E94C2
:1001B000C90081110C9400000895FC01A48DA80FC2
:1001C000B92FB11DA35ABF4F2C91848D90E0019699
:1001D0008F739927848FA689B7892C93A089B189B9
:1001E0008C91837080648C93938D848D981306C05A
:1001F0000288F389E02D80818F7D80830895EF92BE
:10020000FF920F931F93CF93DF93EC0181E0888FD0
:100210009B8D8C8D98131AC0E889F989808185FFA0
:1002200015C09FB7F894EE89FF896083E889F98942
:1002300080818370806480839FBF81E090E0DF9144
:10024000CF911F910F91FF90EF900895F62E0B8D97
:1002500010E00F5F1F4F0F731127E02E8C8D8E1152
:100260000CC00FB607FCFACFE889F989808185FFB9
:10027000F5CFCE010E94DD00F1CFEB8DEC0FFD2F0D
:10028000F11DE35AFF4FF0829FB7F8940B8FEA8974
:10029000FB8980818062CFCFCF93DF93EC01888D83
:1002A0008823B9F0AA89BB89E889F9898C9185FDF1
:1002B00003C0808186FD0DC00FB607FCF7CF8C917F
:1002C00085FFF2CF808185FFEDCFCE010E94DD005A
:1002D000E9CFDF91CF9108953FB7F8948091210144
:1002E00090912201A0912301B091240126B5A89BF1
:1002F00005C02F3F19F00196A11DB11D3FBFBA2FB8
:10030000A92F982F8827BC01CD01620F711D811D77
:10031000911D42E0660F771F881F991F4A95D1F7FC
:1003200008958F929F92AF92BF92CF92DF92EF92F9
:10033000FF920E946C014B015C0185E0C82ED12C1C
:10034000E12CF12C0E946C01681979098A099B093A
:10035000683E734081059105A8F321E0C21AD108D7
:10036000E108F10888EE880E83E0981EA11CB11CFC
:10037000C114D104E104F10429F7FF90EF90DF905C
:10038000CF90BF90AF909F908F900895E82FF0E0AE
:10039000E050FF4F8081623009F48F7728E030E031
:1003A00087FF14C0289A5F9A5F98880F21503109FF
:1003B000B9F788E090E067FF0BC0289A5F9A5F98D2
:1003C000660F0197C1F75C9A5C9808952898EBCF67
:1003D0002898F4CF1F920F920FB60F9211242F93EB
:1003E0003F934F935F936F937F938F939F93AF93BD
:1003F000BF93EF93FF9385E291E00E94DD00FF91B0
:10040000EF91BF91AF919F918F917F916F915F918C
:100410004F913F912F910F900FBE0F901F90189505
:100420001F920F920FB60F9211242F938F939F93C9
:10043000EF93FF93E0913501F09136018081E091D7
:100440003B01F0913C0182FD1BC0908180913E01F7
:100450008F5F8F7320913F01821741F0E0913E0141
:10046000F0E0EB5DFE4F958F80933E01FF91EF91A1
:100470009F918F912F910F900FBE0F901F90189505
:100480008081F4CF1F920F920FB60F9211242F93F9
:100490003F938F939F93AF93BF9380911D01909152
:1004A0001E01A0911F01B091200130911C0123E099
:1004B000230F2D3758F50196A11DB11D20931C0166
:1004C00080931D0190931E01A0931F01B093200102
:1004D0008091210190912201A0912301B0912401EA
:1004E0000196A11DB11D8093210190932201A0933B
:1004F0002301B0932401BF91AF919F918F913F91C0
:100500002F910F900FBE0F901F90189526E8230F84
:100510000296A11DB11DD2CF1F920F920FB60F925E
:1005200011248F938091C301882349F081508093D7
:10053000C3018F910F900FBE0F901F90189580915F
:10054000C201882329F081508093C2018BE3EFCF51
:1005500088E0809381002D9AECCF1F920F920FB606
:100560000F9211248F939F93319908C0809181003D
:10057000883049F58CE0809381002D9832990FC026
:1005800080918100883059F49091C3018091C2011B
:100590009B33F0F48A30E0F49F5F9093C30133996A
:1005A0000BC080918100883039F48091C301882389
:1005B000D1F081508093C3019F918F910F900FBE16
:1005C0000F901F90189588E0809381002D9AD6CFC8
:1005D0008A3030F48F5F8093C2011092C301DFCF65
:1005E0001092C201FACF8091C201882329F0815074
:1005F0008093C2018BE3DECF8AE08093C201DCCF1F
:10060000789484B5826084BD84B5816084BD85B5ED
:10061000826085BD85B5816085BD80916E008160F9
:1006200080936E001092810080918100826080939F
:1006300081008091810081608093810080918000A1
:100640008160809380008091B10084608093B100CC
:100650008091B00081608093B00080917A008460C6
:1006600080937A0080917A00826080937A008091F2
:100670007A00816080937A0080917A00806880930C
:100680007A001092C100E0913501F091360182E0CC
:100690008083E0913101F09132011082E0913301C9
:1006A000F09134019FEC908310923D01E09139016B
:1006B000F0913A0196E09083E0913701F091380192
:1006C000908190619083E0913701F09138019081A1
:1006D00098609083E0913701F091380190819068A3
:1006E0009083E0913701F091380190819F7D908354
:1006F00017B891E294B990E99AB99EE090936C0092
:10070000809368001092800098E09093810010928E
:10071000820080936F0083E294EF9093890080932E
:1007200088002D9A1092C3011092C20161E080E00E
:100730000E94C601CAE000E010E08091C3016C2F66
:100740000E940004D82F892F68E00E94C6010E94F1
:1007500091018D2F6C2F0E940004892F64E00E946C
:10076000C6010E9491018091C2016C2F0E94000479
:10077000D82F892F62E00E94C6010E9491018D2F1F
:100780006C2F0E940004892F61E00E94C6010E9424
:1007900091010115110589F20E94C900882369F2AF
:1007A0000E940000CACFE5E2F1E01382128288EED7
:1007B00093E0A0E0B0E084839583A683B7838EE0C6
:1007C00091E09183808385EC90E09587848784EC29
:1007D00090E09787868780EC90E0918B808B81EC0E
:1007E00090E0938B828B82EC90E0958B848B86ECEF
:1007F00090E0978B868B118E128E138E148E089537
:10080000991B79E004C0991F961708F0961B881F62
:100810007A95C9F780950895EE0FFF1F0590F49122
:08082000E02D0994F894FFCFCC
:10082800C0F9A4B0999282F8809800000000FF00F7
:0C0838005F008C004C01BD009B00AF0075
:00000001FF
