:100000000C9434000C9451000C9451000C94510049
:100010000C9451000C9451000C9451000C9451001C
:100020000C9451000C9451000C9451000C9451000C
:100030000C9451000C9451000C9451000C945100FC
:100040000C949D000C9451000C9451000C945100A0
:100050000C9451000C9451000C9451000C945100DC
:100060000C9451000C94510011241FBECFEFD8E026
:10007000DEBFCDBF11E0A0E0B1E0E4E1F3E002C0FB
:1000800005900D92AA30B107D9F721E0AAE0B1E0BE
:1000900001C01D92A531B207E1F70E94E7000C9460
:1000A00088010C9400003FB7F89480910F01909163
:1000B0001001A0911101B091120126B5A89B05C0B5
:1000C0002F3F19F00196A11DB11D3FBFBA2FA92FD7
:1000D000982F8827BC01CD01620F711D811D911DD4
:1000E00042E0660F771F881F991F4A95D1F7089540
:1000F000E0911301F0911401E050FF4F208188E05E
:1001000090E031E027FF15C035B95F9A5F98220F64
:100110000197C1F788E090E021E031E027FF0BC0B4
:1001200035B95F9A5F98220F0197C1F75C9A5C9886
:10013000089515B8EACF15B8F4CF1F920F920FB6F5
:100140000F9211242F933F938F939F93AF93BF935D
:1001500080910B0190910C01A0910D01B0910E01C5
:1001600030910A0123E0230F2D3758F50196A11D88
:10017000B11D20930A0180930B0190930C01A09371
:100180000D01B0930E0180910F0190911001A0918B
:100190001101B09112010196A11DB11D80930F01B3
:1001A00090931001A0931101B0931201BF91AF91F0
:1001B0009F918F913F912F910F900FBE0F901F90A5
:1001C000189526E8230F0296A11DB11DD2CF789471
:1001D00084B5826084BD84B5816084BD85B582604C
:1001E00085BD85B5816085BD80916E0081608093FD
:1001F0006E00109281008091810082608093810066
:100200008091810081608093810080918000816075
:10021000809380008091B10084608093B1008091D0
:10022000B00081608093B00080917A0084608093F8
:100230007A0080917A00826080937A0080917A00BF
:10024000816080937A0080917A00806880937A0040
:100250001092C10017B881E084B980E98AB9109280
:100260001401109213010E947800C0E0D0E031998F
:100270000FC08091130190911401893091050CF009
:1002800041C0019690931401809313010E9478005D
:1002900032990EC08091130190911401181619061D
:1002A000A4F5019790931401809313010E947800A4
:1002B0000E9453004B015C0188ECC82ED12CE12C2C
:1002C000F12C0E945300681979098A099B09683E3C
:1002D000734081059105A8F321E0C21AD108E10815
:1002E000F10888EE880E83E0981EA11CB11CC11491
:1002F000D104E104F10429F7209709F4B8CF0E9452
:100300000000B5CF90E080E0BDCF89E090E0CACF9B
:04031000F894FFCF8F
:0A031400C0F9A4B0999282F8809815
:00000001FF
