:100000000C9434000C9451000C9451000C94510049
:100010000C949D000C9451000C9451000C945100D0
:100020000C9451000C9451000C9451000C9451000C
:100030000C9451000C9451000C9451000C945100FC
:100040000C9453000C9451000C9451000C945100EA
:100050000C9451000C9451000C9451000C945100DC
:100060000C9451000C94510011241FBECFEFD8E026
:10007000DEBFCDBF11E0A0E0B1E0E0E4F2E002C0FD
:1000800005900D92A430B107D9F721E0A4E0B1E0CA
:1000900001C01D92AE30B207E1F70E94C9000C9476
:1000A0001E010C9400001F920F920FB60F921124A4
:1000B0002F933F938F939F93AF93BF9380910A01A8
:1000C00090910B01A0910C01B0910D0130910901AB
:1000D00023E0230F2D3758F50196A11DB11D209364
:1000E000090180930A0190930B01A0930C01B09336
:1000F0000D018091050190910601A0910701B09139
:1001000008010196A11DB11D809305019093060180
:10011000A0930701B0930801BF91AF919F918F9178
:100120003F912F910F900FBE0F901F90189526E8CA
:10013000230F0296A11DB11DD2CF1F920F920FB6B1
:100140000F9211248F93EF93FF9331990CC0E0919C
:100150000401E33040F4EF5FE0930401F0E0E0508D
:10016000FF4F808185B932990CC0E0910401EE23E4
:1001700041F0E150E0930401F0E0E050FF4F808156
:1001800085B9FF91EF918F910F900FBE0F901F9047
:100190001895789484B5826084BD84B5816084BDEF
:1001A00085B5826085BD85B5816085BD80916E0015
:1001B000816080936E001092810080918100826046
:1001C0008093810080918100816080938100809183
:1001D00080008160809380008091B1008460809372
:1001E000B1008091B00081608093B00080917A006E
:1001F000846080937A0080917A00826080937A0094
:1002000080917A00816080937A0080917A00806882
:1002100080937A001092C10017B88FEF84B986E0FE
:1002200080936C0082E08093680088E385B9C0E029
:10023000D0E02097F1F30E940000FBCFF894FFCFAD
:0402400038342C1C06
:00000001FF
